S0150000494E54455252555054204156522E7372656339
S11300000C942A000C9434000C9458000C94340082
S11300100C9434000C9434000C9434000C9434008C
S11300200C9434000C9434000C9434000C9434007C
S11300300C9434000C9434000C9434000C9434006C
S11300400C9434000C9434000C9434000C9434005C
S11300500C94340011241FBECFE5D8E0DEBFCDBF21
S11300600E9436000C945C000C9400008FEF87BB58
S11300708ABB87EF81BB8CE085BF80E88BBF789417
S113008085E58BBB2FEF80E792E0215080409040C4
S1130090E1F700C000008AEA8BBB2FEF80E792E013
S11300A0215080409040E1F700C000007894E8CFF0
S10F00B088B3809588BB0895F894FFCFB6
S9030000FC
