:100000000C942A000C943C000C943C000C943C0092
:100010000C943C000C943C000C943C000C943C0070
:100020000C943C000C943C000C943C000C943C0060
:100030000C943C000C943C000C943C000C943C0050
:100040000C943C000C943C000C943C000C943C0040
:100050000C943C0011241FBECFE5D8E0DEBFCDBF1D
:1000600020E0A0E6B0E001C01D92A236B207E1F7A1
:100070000E943E000C948C000C9400008FEF87BB14
:100080008ABB80E888BB8FE493EC0197F1F700C04E
:100090000000109261001092600012C088B3869533
:1000A00088BB8FE493EC0197F1F700C000008091CA
:1000B00060009091610001969093610080936000D0
:1000C0008091600090916100089744F380E88BBBB9
:1000D0008FE493EC0197F1F700C0000010926100EB
:1000E0001092600012C08BB386958BBB8FE493ECAB
:1000F0000197F1F700C000008091600090916100CD
:1001000001969093610080936000809160009091CF
:0C0110006100089744F3B5CFF894FFCFCE
:00000001FF
