:100000000C942A000C9434000C9434000C943400AA
:100010000C9434000C9434000C9434000C94340090
:100020000C9434000C9434000C9434000C94340080
:100030000C9434000C9434000C9434000C94340070
:100040000C9434000C9434000C9434000C94340060
:100050000C94340011241FBECFE5D8E0DEBFCDBF25
:100060000E943C000C944B000C94000008B600FE6B
:10007000FDCF81E088BF08958FEF87BB8DE083BF00
:100080008FE48CBF85E588BB0E9436008AEA88BB76
:0A0090000E943600F7CFF894FFCF6E
:00000001FF
