S00B00004C43442E7372656346
S11300000C942A000C9447000C9447000C9447006D
S11300100C9447000C9447000C9447000C94470040
S11300200C9447000C9447000C9447000C94470030
S11300300C9447000C9447000C9447000C94470020
S11300400C9447000C9447000C9447000C94470010
S11300500C94470011241FBECFE5D8E0DEBFCDBF0E
S113006010E0A0E6B0E0E0E1F2E002C005900D92FD
S1130070A637B107D9F720E0A6E7B0E001C01D928A
S1130080AE3DB207E1F70E948B000C9406010C947C
S1130090000085BB93E092BB2FEF30E792E0215044
S11300A030409040E1F700C0000091E092BB209105
S11300B0780030917900F901E658FF4F80832F5F73
S11300C03F4F3093790020937800B49BFECFB59BCB
S11300D0FCCFB69BFACFB69BF8CFB79BF6CF08956B
S11300E085BB82E082BB2FEF80E792E02150804005
S11300F09040E1F700C0000012BA0895CF93DF9357
S1130100EC0103C00E944900219688818111FACF35
S1130110DF91CF9108958FEF84BB81BB8FE087BBC4
S113012081E00E9470008EE00E94700086E00E94D0
S1130130700088E30E94700080E80E9470008EEFD7
S113014088BBB49903C081E30E944900B59903C0F8
S113015082E30E944900B69903C083E30E944900E8
S1130160B79903C084E30E9449008DEF88BBB4991A
S113017003C085E30E944900B59903C086E30E9449
S11301804900B69903C087E30E944900B79903C0A8
S113019088E30E9449008091780090917900049747
S11301A071F6109279001092780019C0FC01E6589B
S11301B0FF4F3081FC01E05AFF4F208132130AC007
S11301C020917600309177002F5F3F4F3093770076
S11301D02093760001969093790080937800809123
S11301E07800909179008430910504F38091760031
S11301F090917700049729F485E690E00E947E00B0
S11302009ECF8EE690E00E947E0099CFF894FFCFB7
S1130210323235350073756363657373210066612B
S1090220696C6564210015
S9030000FC
