:020000040000FA
:1000000018F09FE518F09FE518F09FE518F09FE5C0
:1000100018F09FE50000A0E1F0FF1FE518F09FE554
:1000200058000000400000001421000048000000BB
:100030004C000000000000005000000054000000D0
:10004000FEFFFFEAFEFFFFEAFEFFFFEAFEFFFFEA18
:10005000FEFFFFEAFEFFFFEAA0009FE50110A0E31C
:10006000001080E598009FE5AA10A0E35520A0E3CA
:100070002430A0E3043080E50130A0E3003080E5C7
:100080000C1080E50C2080E5083090E5013B13E280
:10009000FCFFFF0A0330A0E3003080E50C1080E590
:1000A0000C2080E55C009FE50410A0E3041080E5CF
:1000B0000210A0E3001080E54C009FE5DBF021E397
:1000C00000D0A0E1080040E2D7F021E300D0A0E199
:1000D000080040E2D1F021E300D0A0E1080040E2B6
:1000E000D2F021E300D0A0E1030C40E2D3F021E301
:1000F00000D0A0E1030C40E210009FE510FF2FE1CB
:1001000000C11FE080C01FE000C01FE0903B004026
:1001100014010000000000EB2F0000EB2C008FE228
:10012000000C90E800A08AE000B08BE001704AE289
:100130000B005AE10000001A270000EB0F00BAE89C
:1001400018E04FE2010013E303F0471013FF2FE123
:10015000A8210000C8210000102052E27800B02839
:100160007800A128FBFFFF8A822EB0E13000B02882
:100170003000A12800409045004081451EFF2FE13E
:100180000030B0E30040B0E30050B0E30060B0E303
:10019000102052E27800A128FCFFFF8A822EB0E1F5
:1001A0003000A128003081451EFF2FE101C08FE201
:1001B0001CFF2FE11FB502F09BF8059886460FBC87
:1001C000009C02B07047000001C08FE21CFF2FE1CD
:1001D00030B47546AE4630BC70470000980700EB5F
:1001E0000210A0E1F0FFFFEB1CC09FE50FC08CE008
:1001F00001001CE30DE08F120FE0A0011CFF2FE1B6
:1002000001C08FE21CFF2FE101F04CFF290100002B
:100210007847C046EBFFFFEBA70700EB0C009FE51C
:100220000C109FE504209FE508309FE51EFF2FE19D
:1002300070350040783800407035004071C08FE262
:100240001CFF2FE110B50FE0012000046149C861D7
:10025000FF20F53000F0FBFB012000045D49486100
:10026000FF20F53000F0F3FBEEE710B50FE00120C2
:1002700040045849C8617D20C00000F0E8FB01201F
:10028000400454494861FF20F53000F0E0FBEEE700
:1002900010B50EE0012080044E49C8614E4800F0C0
:1002A000D6FB012080044B494861FF20F53000F067
:1002B000CEFBEFE749490870C0464849097D202236
:1002C0001142FAD0704710B509E04120FFF7F2FF64
:1002D0004220FFF7EFFF7D20C00000F0B8FBF4E7FD
:1002E00010B5C0460022D24300213D4800680B00F3
:1002F00001F082FB01F0D4FF0F2000053549486171
:100300007D20000100F0A3FB0F2000053149C861EA
:100310004420FFF7CFFF01F0CFFFE3E71CB500203B
:100320002C498860401E88612E482F490860801340
:100330002E4908612F202E4988602E482E4988605A
:1003400002202E4908708320244908734520087034
:1003500001200871032008735320FFF7ABFF03222D
:100360000021012001F03BF91D49086000220092A4
:1003700001925A2222A12448002300F057F90022BA
:10038000009201925A2221A12248002300F04EF946
:100390000022009201925A221FA12148002300F05E
:1003A00045F90022009201925A221EA11F48002303
:1003B00000F03CF9002203216B4606C37D22D200E7
:1003C0001BA11D48002300F031F900F023FDC046B9
:1003D000FEE70000008002E0DC05000000C000E055
:1003E000000000400100002000C002E000F0FFFF1C
:1003F00000F2FFFF3C04000000F1FFFF40C11FE0DE
:10040000426C696E6B31000045020000426C696EFF
:100410006B3200006B020000426C696E6B330000AF
:10042000910200007561727430000000C702000084
:1004300048616E646C657200E10200000F502DE9A6
:1004400008D04DE2870700EB0000A0E304008DE533
:1004500004108DE234009FE5000090E5840700EB76
:100460004300A0E374FFFFEB04009DE5000050E3B0
:100470000000000A810700EB830700EB0000A0E307
:10048000D00F00E508D08DE20F50BDE804F05EE229
:100490000000004010B5002406E014216143F94A31
:1004A000881801F001F8641C042CF6D3F54850308C
:1004B00000F0FAFFF348643000F0F6FFF1487830BE
:1004C00000F0F2FFEF488C3000F0EEFFED48A03076
:1004D00000F0EAFFEB485030EB4908601430091D8A
:1004E000086010BC08BC184710B5040001F029FCD6
:1004F000E5482C380068401CE3492C390860E34883
:100500000068002808D1E14804600800006801285C
:100510000FD1FFF7BFFF0CE0DB4820380068002850
:1005200007D1DA480068C06AE16A884201D8D74832
:100530000460D54810380068401CD3491039086061
:100540001439E06A0968884203D9CF492439E06A3E
:1005500008601422E16A5143CA4A8818211D00F03C
:10056000B3FF01F0F9FBC84820380068002807D025
:10057000C6480068C06AE16A884201D201F08CFE78
:1005800010BC08BC1847FFB581B00C0015000A9ECE
:100590000C98006B691E8900401800900098C008F4
:1005A000C0000090002708E0E15D0C983430C15590
:1005B000E05D002800D102E07F1C082FF4D3C04684
:1005C00000210C983430C171042E00D303260C98FE
:1005D000C6620C98C66300200C9908640C98001D34
:1005E00000F06FFF0C98183000F06BFF0C98006162
:1005F0000420801B0C9988610C98406200200C99A3
:10060000486400210C9840300172049A684603C87F
:1006100001F030FB0C9908600B98002802D00BA861
:1006200003C8016005B0F0BC08BC1847FFB587B02F
:10063000040015001E00A80001F0DBFB0700002FDE
:100640000DD04C2001F0D5FB06900698002802D072
:100650000698076305E0380001F024FC01E0002063
:1006600006900698002812D000220699119801AB36
:1006700007C3109A330000922A0020000899FFF760
:1006800082FF0698FFF730FF0120059002E000206E
:10069000C043059005980BB0F0BC08BC18477A49D8
:1006A00009680968002901D1012100E00021002921
:1006B00005D00021C943744A0C3A116007E0724921
:1006C0000968C968C868704A0C3A41681160704787
:1006D00010B50400206B01F0E5FB200001F0E2FB07
:1006E00010BC08BC184770B5050001F02AFB002DAE
:1006F00002D16648006800E028000400201D00F0D8
:1007000009FFA06A002803D02000183000F002FF83
:100710005D4810380068401C5B49103908605B4830
:10072000006884420CD1211D56488C3000F0CCFE6C
:10073000554830380068401C5349303908600BE098
:1007400051482C380068401E4F492C390860200061
:10075000FFF7BEFFFFF7A3FF01F0FEFA4A4820387B
:100760000068002805D049480068844201D101F0A2
:1007700093FD70BC08BC1847F8B5002000904248B3
:10078000001F006800286BD13F4828380068461CCD
:100790003D4828380660002E0FD128300768001D1C
:1007A000006839490860081D076018380068401C57
:1007B00014390860FFF773FFC04633480C380068EF
:1007C000864241D3C046304800680068002801D105
:1007D000012000E00020002805D00020C0432A4965
:1007E0000C3908602FE028480068C068C468656854
:1007F000AE4203D224480C38056024E0201D00F0EE
:1008000089FEA06A002803D02000183000F082FE84
:100810001D492439E06A0968884203D91A492439F4
:10082000E06A08601422E16A5143164A8818211DC3
:1008300000F04AFE1549E06A0968C96A8842C2D3D5
:1008400001200090BFE7C04610480068C06A14212C
:1008500048430C490858012801D90120009006E0BE
:1008600009481C380068401C07491C3908600648C4
:1008700018380068002801D0012000900098F8BCCA
:1008800008BC18475C0000403800004004000040ED
:1008900070B50024002501F054FAFD480068401EA0
:1008A000FB49086008000068002856D10800283875
:1008B0000068002851D026E0F648C068C4682000CF
:1008C000183000F027FE201D00F024FEF0492039EA
:1008D000E06A0968884203D9ED492039E06A086076
:1008E0001422E16A5143EB4A783A8818211D00F03E
:1008F000EBFDE949E06A0968C96A884203D301202F
:10090000E34914390860E3480068002801D1012058
:1009100000E000200028CFD0002C01D0FFF7BFFE60
:10092000DB4818380668002E0FD0C046FFF724FFBA
:10093000002803D00120D64914390860761E002E05
:10094000F4D10020D24918390860D1481438006821
:10095000002802D0012501F09FFC01F0FDF92800DC
:1009600070BC08BC1847F8B504000D00C84824380E
:100970000768C9480068001D00F0CCFD601C09D163
:10098000002D07D0C4480168091DC248283000F076
:100990009BFD1EE03E19C04800684660BE4208D27A
:1009A000BD480168091DBA480830006800F098FD8C
:1009B0000FE0B9480168091DB548001D006800F046
:1009C0008FFDB34808380068864202D2B048083824
:1009D0000660F8BC08BC1847AD480068401CAC492C
:1009E00008607047FEB504000D0000200190FFF77D
:1009F000F3FFA74824380068009020684619206853
:100A00000099884208D92068B0420DD900988642E2
:100A10000AD90120019007E02068B04202D800986E
:100A2000864201D90120019026600198002804D057
:100A30000099701A0021FFF796FFFFF729FF0700C2
:100A4000002F01D101F028FCFEBC08BC184770B58E
:100A500004000025002C08D0FFF7BEFF0021200075
:100A6000FFF781FFFFF714FF0500002D01D101F012
:100A700013FC70BC08BC184770B5040001F061F9A4
:100A8000002C02D18448006800E020000500EE6AD6
:100A900001F062F9300070BC08BC184710B40100C6
:100AA0000023002902D17C4C246800E00C002200C5
:100AB000D06A10BC7047FEB504000D000020009005
:100AC000042D00D3032501F03CF9002C02D172481B
:100AD000006800E020000600F76BAF424CD0BD423A
:100AE0000BD96D48006886420DD06B480068C06A1B
:100AF000A84208D80120009005E0674800688642B7
:100B000001D101200090F06A0190F16AF06B8842F7
:100B100000D1F562F563B069C00FC00702D10420AF
:100B2000401BB0617169142201985043594A783AC8
:100B30008018814201D1012000E00020002815D05A
:100B4000301D00F0E7FC52492039F06A09688842FC
:100B500003D94F492039F06A08601422F16A5143E1
:100B60004C4A783A8818311D00F0AEFC00980028F5
:100B700001D001F091FBC04601F0EEF8FEBC08BCCC
:100B8000184743480068002804D001204049143920
:100B900008602BE000203E49143908600C390868D1
:100BA00000E0401E142141433A4A783A5158002946
:100BB00001D1012100E000210029F2D11422424399
:100BC000344B783BD1184A6852684A600A000832B0
:100BD0004B68934202D14A6852684A604A68D268B8
:100BE0002D4B1A602A4920390860C046704770B5FD
:100BF000050001F0A6F8002D02D12748006800E0AA
:100C000028000400201D00F085FCA06A002803D005
:100C10002000183000F07EFC211D1E48283000F016
:100C200053FC01F099F81A481C380068002805D0D8
:100C300001F087F8FFF733FD01F08EF816480068E1
:100C4000844215D112481C380068002802D001F0F7
:100C500023FB0DE00F48283000680D49283909684A
:100C6000884203D100200C49086001E0FFF789FFAA
:100C700070BC08BC184710B4010000200A00110025
:100C8000044C28345369A34208D1012307E0000033
:100C900034000040D4000040040000400023002B3A
:100CA00011D0F94C936AA34201D1012300E0002343
:100CB000002B08D1936A002B01D1012300E000230F
:100CC000002B00D0012010BC704770B505002C002F
:100CD000002C28D0ED480068844224D001F031F87F
:100CE0002000FFF7C8FF00281BD0201D00F012FCD9
:100CF000E749E06A0968884202D9E549E06A086084
:100D00001422E16A5143E04A783A8818211D00F024
:100D1000DBFBDE49E06A0968C96A884201D301F059
:100D2000BBFA01F019F870BC08BC1847F8B504000C
:100D30000025260000273000FFF79DFF002825D062
:100D4000D3482030006800281BD1D049F06A0968D8
:100D5000C96A884200D30125301D00F0DBFBCC4975
:100D6000F06A0968884202D9C949F06A0860142209
:100D7000F16A5143C44A783A8818311D00F0A4FB47
:100D800004E031001831C04800F09EFB2800F8BC98
:100D900008BC184770B529E0FFF71EFEBA481430AA
:100DA0000068002801D1012000E000200500FFF7C5
:100DB0006FFD002D1AD100F0C4FFB3481430C06895
:100DC000C468201D00F0A6FBB14808380068401E2A
:100DD000AF4908390860081F0068401E091F0860F5
:100DE00000F0BAFF2000FFF773FCC046A8480C389B
:100DF00000680028D0D170BC08BC184710B5C046A8
:100E0000FFF7C8FFA048783800680128F8D901F03A
:100E100043FAF5E71CB59E4A1C320021684606C01D
:100E20005A229CA19D480023FFF700FC0400012CDE
:100E30000DD101F035FAA01E954918310860012046
:100E40001439086000200839086000F070FF1CBCED
:100E500008BC184710B501F023FA00208C49091D81
:100E6000086000F06DFF10BC08BC184710B500F01A
:100E700068FF8748001F046800F06EFF200010BC68
:100E800008BC18470021824A121F1068704780482A
:100E90000838006870470200002A02D17B480068C9
:100EA00000E01000010008003430704770B5040005
:100EB0000D00764801681831200000F011FB012177
:100EC0002800FFF750FD70BC08BC184770B504003F
:100ED0000D0016000120C00728436C49096888618D
:100EE0006A4801681831200000F0EEFA0121300054
:100EF000FFF739FD70BC08BC184770B50400E06806
:100F0000C5682800183000F005FB614820300068F3
:100F1000002814D1281D00F0FDFA5D49E86A09682F
:100F2000884202D95A49E86A08601422E96A5143A2
:100F3000554A783A8818291D00F0C6FA04E02900BD
:100F40001831514800F0C0FA5049E86A0968C96A86
:100F5000884205D9012601204D490C31086000E086
:100F60000026300070BC08BC1847F8B504000D001E
:100F70000120C00728432060E668200000F0CAFA7C
:100F8000301D00F0C7FA4249F06A0968884202D968
:100F90003F49F06A08601422F16A51433A4A783AAC
:100FA0008818311D00F090FA3849F06A0968C96A5A
:100FB000884205D90127012035490C31086000E03D
:100FC00000273800F8BC08BC1847314910310968BF
:100FD00001602F49091F09684160704770B504001E
:100FE0000D0000F0AEFE2A48001F02682868401C71
:100FF00001D100261AE0264910312068096888428C
:1010000004D06068904201D801260FE06068101A91
:101010002968884209D228686168511A401A2860F4
:101020002000FFF7D2FF002600E0012600F094FE2A
:10103000300070BC08BC1847012015490C3108600D
:10104000704712490868704770B505002C002C00E5
:1010500045D00E49E06A0968C96A88423FD2A06952
:10106000C00FC00705D109480068C06A0421081AEA
:10107000A0611422E06A5043034A783A80186169FB
:1010800081420DD101200CE0D4000040040000405A
:101090001400004049444C4500000000FD0D0000D4
:1010A0000020002817D0201D00F034FAFB4800680B
:1010B000C06AE062FA49E06A0968884202D9F849E0
:1010C000E06A08601422E16A5143F64A8818211D3B
:1010D00000F0FAF903E0F1480068C06AE06270BC11
:1010E00008BC184770B5040025000026002C23D04A
:1010F000286C401E2864E96BE86A88421CD0286C82
:10110000002819D1281D00F005FAE86BE8620421D7
:10111000E86A081AA861E249E86A0968884202D9BF
:10112000DF49E86A08601422E96A5143DD4A8818F9
:10113000291D00F0C9F90126300070BC08BC184711
:10114000D64909688869D5490968C96A0422511ACB
:10115000D24A126891617047D0480068002806D0D2
:10116000CE49096808004030096C491C0160CB4831
:101170000068704770B504000E0000F0E2FDC7483B
:101180000068406C00280BD10121C4480068403041
:101190000172002E04D03000FFF7E5FB01F07CF86F
:1011A00000F0DAFD00F0CDFDBC480068456C002D74
:1011B0000AD0002C04D00020B8490968486403E034
:1011C000681EB649096848640021B4480068403088
:1011D000017200F0C1FD280070BC08BC1847FFB5C3
:1011E00081B004000D00160000F0ABFDAB480068B4
:1011F0004030007A022813D0A8490968080044301A
:10120000496CA14301600121A4480068403001728B
:101210000498002804D00498FFF7A5FB01F03CF8DF
:1012200000F09AFD00F08DFD002E03D09B48006871
:10123000406C3060994800684030007A012801D144
:10124000002707E09549096808004430496CA94324
:10125000016001270021914800684030017200F0D0
:101260007BFD380005B0F0BC08BC1847FFB583B063
:1012700004000D001E0001200290270000F061FD17
:10128000002E01D0786C30604820C05D01900221B2
:101290004820C155059B01F019F8051604080C0EED
:1012A0001700786C284378640EE0786C401C7864F2
:1012B0000AE07D6408E00198022801D07D6401E025
:1012C0000020029000E0C046C046019801281AD1D3
:1012D000381D00F01FF97249F86A0968884202D97E
:1012E0006F49F86A08601422F96A51436D4A8818F8
:1012F000391D00F0E9F86949F86A0968C96A884245
:1013000001D900F0C9FF00F027FD029807B0F0BC3A
:1013100008BC1847FFB583B004000D001E00012073
:101320000190270000200090002E01D0786C3060E2
:101330004820C05D029002214820C155059B00F065
:10134000C5FF051604080C0E1700786C2843786456
:101350000EE0786C401C78640AE07D6408E0029836
:10136000022801D07D6401E00020019000E0C04629
:10137000C046029801282FD1494820300068002833
:1013800013D1381D00F0C6F84549F86A096888424B
:1013900002D94349F86A08601422F96A5143414A64
:1013A0008818391D00F090F805E0390018313D48E3
:1013B000783000F089F83949F86A0968C96A8842C2
:1013C0000AD90C98002803D001210C98016003E091
:1013D000012033490C310860019807B0F0BC08BC0B
:1013E0001847F8B504000D002600002000903400D6
:1013F0004820875D02218155706C401C7064012F6C
:101400002DD1274820300068002813D1301D00F06E
:1014100081F82349F06A0968884202D92049F06AB4
:1014200008601422F16A51431E4A8818311D00F0E9
:101430004BF805E0310018311A48783000F044F8D4
:101440001649F06A0968C96A884208D9002D02D095
:101450000120286003E0012011490C310860F8BC2C
:1014600008BC184770B50400002C02D10B48006876
:1014700000E02000050000F064FC4820405D0228E8
:1014800004D1002148204155012600E0002600F04B
:1014900063FC300070BC08BC18470000040000402A
:1014A000140000405C000040010008314160002150
:1014B000C943816001000831C16001610021016000
:1014C000704700210161704742684A6093688B60F1
:1014D000936859609160086103685B1C0360704702
:1014E00010B40B685C1C01D1026907E002000832ED
:1014F00000E05268546824689C42FAD954684C60F1
:101500004C68A1608A60516008610468641C0460D2
:1015100010BC704701000A694B6888689860081D14
:1015200009C858605068884201D18868506000201E
:1015300008611068401E10601068704770B50400A4
:101540000E00250000F0FDFB296CE86B484329687C
:1015500040182C0068600020A8632868A860E86B29
:10156000401E296C484329684018E860FF21442048
:10157000415545204155002E10D12869002801D140
:10158000012000E00020002810D128001030FFF7D3
:10159000B4FC00280AD000F07FFE07E028001030DD
:1015A000FFF782FF28002430FFF77EFF00F0D4FB16
:1015B000012070BC08BC1847F8B504000D001600E7
:1015C000069F002D01D13F6000E03E60FC633D645A
:1015D00001213800FFF7B2FFF8BC08BC1847F7B587
:1015E00082B0040015000398002801D1002702E012
:1015F0002700039847433800483000F0FAFB060004
:10160000002E09D03000483001902B0000962000B9
:10161000019A0399FFF7D0FF300005B0F0BC08BC79
:10162000184770B5040000F08CFB4520055714E006
:10163000606A002801D1012000E00020002808D1C4
:1016400020002430FFF759FC002803D0FFF7F4FCFA
:1016500000E004E0681E00060516002DE8DCC04628
:10166000FF214520015500F077FB00F06AFB442084
:10167000055714E02069002801D1012000E0002076
:1016800000280BD120001030FFF737FC002801D0D4
:10169000FFF7D2FC681E0006051600E001E0002DF1
:1016A000E8DCC046FF214420015500F055FB70BC2A
:1016B00008BC184770B5040000F043FBA06BE16B59
:1016C000884201D1012500E0002500F045FB2800FB
:1016D00070BC08BC1847F8B504000D0016000020C7
:1016E0000090A76B206C002809D1206800282ED11B
:1016F0006068FFF7F7FC00900020606027E0002E94
:101700000FD12900226CA06800F0FAFB216CA068C0
:101710004018A0606168A068884218D32068A06063
:1017200015E02900226CE06800F0EAFB216CE0681B
:10173000401AE0602168E068884203D2216C60684A
:10174000401AE060022E02D1002F00D07F1E781CCC
:10175000A0630098F8BC08BC1847FFB583B004002C
:101760001D0000260094C04600F0EBFA0098806B44
:101770000099C96B884201D3022D22D12A00049915
:101780000098FFF7A8FF07000098406A002801D1E1
:10179000012000E00020002808D100982430FFF745
:1017A000ACFB002806D000F077FD03E0002F01D04D
:1017B00000F072FD00F0D0FA012007B0F0BC08BCC8
:1017C00018470598002803D100F0C6FA0020F4E776
:1017D000002E03D101A8FFF7F8FB012600F0BCFAA8
:1017E000FFF7FAF800F0ADFA442000990856401CC3
:1017F00003D10021009840300171452100984156E5
:10180000491C02D100984030417100F0A5FA05A9A9
:1018100001A8FFF7E3FB002819D10098FFF74AFF62
:1018200000280ED0009810300599FFF73FFB009874
:10183000FFF7F7FEFFF72CF8002895D100F02CFDFC
:1018400092E70098FFF7EDFEFFF722F88CE700988B
:10185000FFF7E7FEFFF71CF80020AEE710B5040025
:10186000002C09D0002060602060E06000221100A0
:1018700020001300FFF771FF10BC08BC1847F8B533
:10188000040001260027220000210120FFF7A7FE07
:1018900005002800FFF7E2FF2800F8BC08BC184745
:1018A00070B504000D00022200212000FFF797FE12
:1018B0000600002E00D0B563300070BC08BC18478D
:1018C000FFB583B004000D001600009400200190C5
:1018D000009CA06BE16B884202D30698022826D1B7
:1018E0004521009847562900069A0098FFF7F3FE15
:1018F000781C13D10098406A002801D1012000E033
:101900000020002810D100982430FFF7F6FA0028B4
:101910000AD0002E08D00120306005E0781C0106B6
:1019200009160098403041710120029001E000202A
:101930000290029807B0F0BC08BC1847FEB504003E
:101940000D002700002002903C00B86B0190F86B5E
:101950000199884223D94520C15700910198401C24
:10196000B8630098401C12D1786A002801D1012088
:1019700000E00020002810D138002430FFF7BDFA25
:1019800000280AD0002D08D00120286005E000982A
:10199000401C010609164520C155012600E000261D
:1019A0003000FEBC08BC184770B5040000F0C9F94F
:1019B000A06B002801D1012500E0002500F0CCF942
:1019C000280070BC08BC184770B504000D00206CDE
:1019D00000280ED0216CE0684018E0606168E06883
:1019E000884201D32068E0602800226CE16800F0A2
:1019F00087FA70BC08BC1847FFB585B004001D000D
:101A000000260294C04600F09CF90298806B019079
:101A1000019800283FD00298C76806990298FFF7FE
:101A2000D3FF002D1DD10198401E029988630298B2
:101A30000068002803D1FFF78FFB029948600298E5
:101A40000069002801D1012000E0002000281BD1FE
:101A500002981030FFF751FA002815D000F01CFC56
:101A600012E00298C7600298406A002801D1012064
:101A700000E00020002807D102982430FFF73DFA4B
:101A8000002801D000F008FC00F066F9012009B040
:101A9000F0BC08BC18470798002803D100F05CF997
:101AA0000020F4E7002E03D103A8FFF78EFA0126E9
:101AB00000F052F9FEF790FF00F043F9442002993C
:101AC0000856401C03D10021029840300171452185
:101AD00002984156491C02D102984030417100F0F1
:101AE0003BF907A903A8FFF779FA002826D1029845
:101AF000FFF75AFF00281BD002980068002807D182
:101B000000F01FF902994868FFF79EFA00F024F9E7
:101B1000029824300799FFF7C9F90298FFF781FD71
:101B2000FEF7B6FE002800D06DE700F0B5FB6AE7CF
:101B30000298FFF776FDFEF7ABFE64E70298FFF729
:101B400070FDFEF7A5FE0298FFF72EFF0028EBD0F0
:101B500000209CE7F0B585B004000D00160002944B
:101B600000200390029CA06B0190019800282BD0CC
:101B7000442102984156009129000298FFF724FF62
:101B80000198411E029881630098401C13D102986D
:101B90000069002801D1012000E00020002811D1B7
:101BA00002981030FFF7A9F900280BD0002E09D0B9
:101BB0000120306006E00098401C010609160298DA
:101BC00040300171012700E00027380005B0F0BC6B
:101BD00008BC1847FEB504000D00009400200190D9
:101BE000009CA06B002809D00098C76829000098C5
:101BF000FFF7EAFE0098C760012600E000263000EB
:101C0000FEBC08BC184770B5040000F09AF8A56B3C
:101C100000F0A2F8280070BC08BC184770B504009A
:101C2000250000F08EF82C00A96BE86B461A00F036
:101C300093F8300070BC08BC18470100886B7047EF
:101C400070B504002500280000F02CF970BC08BC19
:101C5000184701008A6B002A01D1012000E0002012
:101C6000704701008A6BCB6B9A4201D1012000E0E2
:101C70000020704730B40300001F0C1D0460001FDB
:101C80003F4C0460001F0360001F3E4C0460001FB7
:101C90003D4C0460001F3D4C0460001F3C4C046040
:101CA000001F3C4C0460001F3B4C0460001F3B4C79
:101CB0000460001F3A4C0460001F3A4C0460001F8F
:101CC000394C0460001F394C0460001F641004602C
:101CD000001F0260001F1F240460CC07E40F03D024
:101CE000202504682C430460001F0024046030BCDD
:101CF000704700212E4AD1602E48110088610321CF
:101D000051615114C968102291432B4AD1601100CE
:101D1000096910221143284A11612849284A116093
:101D20002421284A11600121214A5160704710B5D1
:101D3000FFF7DFFF00F0D0F9002010BC08BC184707
:101D4000704710B500F0ACFA1F480068401C1E49EF
:101D5000086010BC08BC184710B51B480068002874
:101D60000AD019480068401E17490860080000683A
:101D7000002801D100F0A0FA10BC08BC18470000F0
:101D8000AAAAAAAA121212121111111110101010DF
:101D900009090909080808080707070706060606CB
:101DA00005050505040404040303030302020202FB
:101DB000004000E060EA000000F0FFFFA02100000A
:101DC00000F1FFFF00F2FFFF40000040494AD10848
:101DD000C900494A11600022474B5A60474A0833FC
:101DE0005A6000221A600800444A42601A000260E9
:101DF0007047F8B5040000200090FEF7EDFD3E4866
:101E0000001F0068002805D1FFF7E0FF01203A49D4
:101E1000091F0860002C08D008346007400F04D068
:101E20006007400F0821081A0419002C34D03348E9
:101E3000844231D2304E3000056801E02E002D681A
:101E40006868A04202D228680028F7D12A480830E2
:101E5000854221D03068083000902868306068687A
:101E6000001B102810D92F196868001B78606C605F
:101E70007968214800E00068026852688A42FAD313
:101E800002683A600760C0461B49083968680968FB
:101E9000081A194908390860FEF7FAFC0098F8BCDE
:101EA00008BC184770B504002500002C19D0083D67
:101EB0002E00FEF791FD350071680F4800E00068C4
:101EC000026852688A42FAD30268326006600A49A0
:101ED0000839706809684018074908390860FEF732
:101EE000D7FC70BC08BC1847034808380068704726
:101EF00070470000180100404C000040F83300001B
:101F00007847C046030052E32A00009A03C010E25B
:101F10000800000A0130D1E402005CE30C2082E0FA
:101F200001C0D1940130C0E40130D13401C0C0946B
:101F3000042042E20130C034033011E22700000ADD
:101F4000042052E21B00003A03C031E7020053E3D1
:101F50000800000A0F00008A2C34A0E104C0B1E59B
:101F6000042052E20C3C83E1043080E4F9FFFF2AB4
:101F7000011081E20F0000EA2C38A0E104C0B1E5B5
:101F8000042052E20C3883E1043080E4F9FFFF2A98
:101F9000021081E2070000EA2C3CA0E104C0B1E598
:101FA000042052E20C3483E1043080E4F9FFFF2A7C
:101FB000031081E20000A0E1822FB0E10130D124C2
:101FC00001C0D1240120D1440130C02401C0C0246B
:101FD0000120C0441EFF2FE170477047704700008A
:101FE00010402DE9202052E20500003A1850B1E8D7
:101FF000202052E21850A0E81850B1E81850A0E88C
:10200000F9FFFF2A02CEB0E11850B1281850A028DD
:102010001800B1481800A0481040BDE802CFB0E158
:1020200004309124043080241EFF2F01822FB0E160
:10203000B230D1200120D144B230C0200120C044B0
:102040001EFF2FE10E50A0E1180000EB05E0A0E11B
:102050000050B0E10D10A0E10A30A0E10700C0E39C
:1020600000D0A0E160D08DE220402DE96AF8FFEBBE
:102070002040BDE80060A0E30070A0E30080A0E382
:1020800000B0A0E30710C1E305C0A0E1C009ACE8BF
:10209000C009ACE8C009ACE8C009ACE801D0A0E1D7
:1020A0001EFF2FE10400C046C0462000FEF7B0F836
:1020B00000009FE51EFF2FE1103500400C109FE54A
:1020C0001800A0E3563412EF1EFF2FE108000000B5
:1020D000260002001EFF2FE17847C0466C019FE5F5
:1020E000000090E500E090E564019FE50200BEE895
:1020F000001080E50100BEE800F06FE1FF7FDEE840
:102100000000A0E13CE09EE504F05EE2000000EF8C
:102110001EFF2FE104E08EE201002DE900204DE9D1
:102120000000A0E104D04DE20100BDE8004020E93C
:1021300000E0A0E10100BDE8FF7F4EE90000A0E162
:102140003CE04EE200004FE101002EE900019FE576
:10215000000090E501002EE9F0009FE5001090E5F9
:1021600000E081E5EC009FE50FE0A0E110FF2FE12A
:10217000D8009FE5000090E500E090E5D0009FE5E5
:102180000200BEE8001080E50100BEE800F06FE14B
:10219000FF7FDEE80000A0E13CE09EE504F05EE2A7
:1021A00001002DE900204DE90000A0E104D04DE23E
:1021B0000100BDE8004020E900E0A0E10100BDE829
:1021C000FF7F4EE90000A0E13CE04EE200004FE15D
:1021D00001002EE978009FE5000090E501002EE95E
:1021E00068009FE5001090E500E081E568009FE54C
:1021F0000FE0A0E110FF2FE1000050E30200000A11
:1022000050009FE50FE0A0E110FF2FE10100A0E3E7
:1022100048109FE5000081E544009FE5000080E54F
:1022200028009FE5000090E500E090E520009FE594
:102230000200BEE8001080E50100BEE800F06FE19A
:10224000FF7FDEE80000A0E13CE09EE504F05EE2F6
:102250000400004040000040830B000079070000AC
:10226000004000E030F0FFFF00C09FE51CFF2FE1C1
:10227000D909000000C09FE51CFF2FE13D190000B7
:1022800000C09FE51CFF2FE1830B000000C09FE50D
:102290001CFF2FE1910800007847C0469AFFFFEA33
:1022A0007847C04600000FE1801080E301F021E193
:1022B000800000E21EFF2FE17847C04600000FE1DA
:1022C0008000C0E300F021E11EFF2FE17847C04607
:1022D00001C05EE50C0053E10100002A0330DEE797
:1022E000000000EA0C30DEE783C08EE01CFF2FE127
:1022F0007847C0461EFF2FE1182300000000004071
:102300005C00000058010000742300005C000040E5
:10231000343B0000800100000000000000000000CD
:1023200000000000000000000000000000000000AD
:10233000000000000000000000000000000000009D
:10234000000000000000000000000000000000008D
:1023500000000000000000000F270000F83300001C
:10236000000000000000000000000000000000006D
:042370000000000069
:0400000500000114E2
:00000001FF
