S00E000054494D4552312E7372656364
S11300000C942A000C9434000C9434000C943400A6
S11300100C9434000C9434000C9434000C9434008C
S11300200C9434000C9434000C9434000C9434007C
S11300300C9434000C9434000C9434000C9434006C
S11300400C9434000C9434000C9434000C9434005C
S11300500C94340011241FBECFE5D8E0DEBFCDBF21
S11300600E9440000C9450000C94000008B602FE5C
S1130070FDCF84E088BF8FEF8DBD81EB8CBD0895EB
S11300808FEF87BB1FBC85E08EBD1DBC1CBC85E506
S113009088BB0E9436008AEA88BB0E943600F7CFEC
S10700A0F894FFCFFE
S9030000FC
