S00E00007561727468772E737265637B
S11300000C942A000C943C000C943C000C943C008E
S11300100C943C000C943C000C943C000C943C006C
S11300200C943C000C943C000C943C000C943C005C
S11300300C943C000C943C000C943C000C943C004C
S11300400C943C000C943C000C943C000C943C003C
S11300500C943C0011241FBECFE5D8E0DEBFCDBF19
S113006020E0A0E6B0E001C01D92A336B207E1F79C
S11300700E9449000C9459000C9400005F9BFECF31
S113008080E88BB98CB108958CB980E48BB98BB9B5
S1130090089582E081BB1BB888E18AB986E880BDF7
S11300A083E389B90E943E00809362000E94440069
S10900B0F9CFF894FFCF24
S9030000FC
