S00B00004144432E7372656351
S11300000C942A000C943C000C943C000C943C008E
S11300100C943C000C943C000C943C000C943C006C
S11300200C943C000C943C000C943C000C943C005C
S11300300C943C000C943C000C943C000C943C004C
S11300400C943C000C943C000C943C000C943C003C
S11300500C943C0011241FBECFE5D8E0DEBFCDBF19
S113006020E0A0E6B0E001C01D92A036B207E1F79F
S11300700E9461000C9402010C94000085BB80EC8A
S113008082BB2FEF80E792E0215080409040E1F75F
S113009000C0000080E482BB089585BB80E882BB79
S11300A02FEF80E792E0215080409040E1F700C0BC
S11300B0000012BA08958CB95E9BFECF80E48BB920
S11300C0089582EF81BB1BB888E18AB986E880BDB8
S11300D083E389B91ABA8FEF84BB80E886B980E4D8
S11300E087B981E00E944D008EE00E944D0086E0B9
S11300F00E944D0088E30E944D0080E80E944D005C
S113010080EC86B93699FECF84B1C5B1D0E0DC2F3E
S1130110CC27C80FD11DCE0168EE73E00E94DA002F
S11301206C0110E3160F812F0E943E00812F0E9464
S11301305B000F2EF4E6EF2EF12CF02DC601B70173
S11301400E94DA0010E3160F812F0E943E00812FD7
S11301500E945B00CE01B7010E94DA000F2EFAE084
S1130160EF2EF12CF02DB7010E94DA0010E3160FE8
S1130170812F0E943E00812F0E945B00CE01B701B7
S11301800E94DA00C0E3C80F8C2F0E943E008C2F1F
S11301900E945B008DE00E945B0081E00E944D00A4
S11301A02FEF80E792E0215080409040E1F700C0BB
S11301B00000A6CF97FB072E16F4009407D077FD16
S11301C009D00E94EE0007FC05D03EF4909581957D
S11301D09F4F0895709561957F4F0895AA1BBB1B8F
S11301E051E107C0AA1FBB1FA617B70710F0A61B33
S11301F0B70B881F991F5A95A9F780959095BC0154
S10B0200CD010895F894FFCF2D
S9030000FC
