:100000000C942A000C9434000C9434000C943400AA
:100010000C9434000C9434000C9434000C94340090
:100020000C9434000C9434000C9434000C94340080
:100030000C9434000C9434000C9434000C94340070
:100040000C9434000C9434000C9434000C94340060
:100050000C94340011241FBECFE5D8E0DEBFCDBF25
:100060000E9436000C9458000C94000087B38860FE
:1000700087BB8DE683BF80E090E008C08CBFEFE3D4
:10008000FCE93197F1F700C0000001968F3F910520
:10009000ACF38FEF90E008C08CBFEFE3FCE9319741
:1000A000F1F700C00000019782309105ACF7E3CF73
:0400B000F894FFCFF2
:00000001FF
