:020000040000FA
:1000000018F09FE518F09FE518F09FE518F09FE5C0
:1000100018F09FE50000A0E1F0FF1FE518F09FE554
:100020005800000040000000001B000048000000D5
:100030004C000000000000005000000054000000D0
:10004000FEFFFFEAFEFFFFEAFEFFFFEAFEFFFFEA18
:10005000FEFFFFEAFEFFFFEAA0009FE50110A0E31C
:10006000001080E598009FE5AA10A0E35520A0E3CA
:100070002430A0E3043080E50130A0E3003080E5C7
:100080000C1080E50C2080E5083090E5013B13E280
:10009000FCFFFF0A0330A0E3003080E50C1080E590
:1000A0000C2080E55C009FE50410A0E3041080E5CF
:1000B0000210A0E3001080E54C009FE5DBF021E397
:1000C00000D0A0E1080040E2D7F021E300D0A0E199
:1000D000080040E2D1F021E300D0A0E1080040E2B6
:1000E000D2F021E300D0A0E1030C40E2D3F021E301
:1000F00000D0A0E1030C40E210009FE510FF2FE1CB
:1001000000C11FE080C01FE000C01FE0903B004026
:1001100014010000000000EB2F0000EB2C008FE228
:10012000000C90E800A08AE000B08BE001704AE289
:100130000B005AE10000001A270000EB0F00BAE89C
:1001400018E04FE2010013E303F0471013FF2FE123
:10015000641B0000841B0000102052E27800B028CD
:100160007800A128FBFFFF8A822EB0E13000B02882
:100170003000A12800409045004081451EFF2FE13E
:100180000030B0E30040B0E30050B0E30060B0E303
:10019000102052E27800A128FCFFFF8A822EB0E1F5
:1001A0003000A128003081451EFF2FE101C08FE201
:1001B0001CFF2FE11FB501F079FD059886460FBCA5
:1001C000009C02B07047000001C08FE21CFF2FE1CD
:1001D00030B47546AE4630BC70470000130600EBE5
:1001E0000210A0E1F0FFFFEB1CC09FE50FC08CE008
:1001F00001001CE30DE08F120FE0A0011CFF2FE1B6
:1002000001C08FE21CFF2FE101F042FCB5020000AB
:100210007847C046EBFFFFEB220600EB0C009FE5A2
:100220000C109FE504209FE508309FE51EFF2FE19D
:1002300070350040783800407035004010B50FE050
:1002400001200004B9494861FF20F53000F06DFC41
:1002500001200004B549C861FF20F53000F065FCBD
:10026000EEE710B50FE001204004B0494861FF20DF
:10027000F53000F05AFC01204004AC49C8617D20F3
:10028000C00000F052FCEEE710B50EE00120800443
:10029000A6494861FF20F53000F047FC01208004AA
:1002A000A249C861A24800F040FCEFE7A1490870EC
:1002B000C046A049097D20221142FAD0704710B5EE
:1002C00009E04120FFF7F2FF4220FFF7EFFF7D201A
:1002D000C00000F02AFCF4E7002107E0002000E065
:1002E000401C4B22D2009042FADB491C4B22D20028
:1002F0009142F3DB704710B503000020C0438B49E7
:10030000C861F02018400400241120054861052030
:1003100040044861FFF7E0FF0120C0048349C86141
:100320004817C8611C07240F2005486105204004B8
:100330004861FFF7D1FF0120C0047C49C86110BCAF
:1003400008BC184710B503000020C0437749C861B6
:10035000F020184004002411200548610120C00449
:100360004861FFF7B9FF0120C0047049C861481710
:10037000C8611C07240F200548610120C0044861A2
:10038000FFF7AAFF0120C0046849C86110BC08BC7F
:10039000184770B558E0C020FFF7D4FF5420FFF78E
:1003A000AAFF6520FFF7A7FF6D20FFF7A4FF7020CD
:1003B000FFF7A1FF3A20FFF79EFF5F485F49086003
:1003C000C0465E484068C00FC007FAD05B4840682E
:1003D0005B4908400400A411C520FFF7B3FF7D214D
:1003E000C900200001F05EFA303005062D0E28000D
:1003F000FFF781FF6421200001F054FA06000A2172
:1004000001F050FA30310D062D0E2800FFF773FF72
:100410006421200001F046FA0E000A21300001F0AC
:1004200041FA303005062D0E2800FFF764FF0A213F
:10043000200001F037FA30310D062D0E2800FFF7AD
:100440005AFF642000F071FBA5E710B52BE0832074
:10045000FFF778FF4820FFF74EFF4520FFF74BFFDF
:100460004C20FFF748FF4C20FFF745FF4F20FFF7D8
:1004700042FF7D20C00000F058FB8320FFF762FFA1
:100480002020FFF738FF2020FFF735FF2020FFF75F
:1004900032FF2020FFF72FFF2020FFF72CFF7D20C9
:1004A000C00000F042FBD2E71CB5FF2000041F494A
:1004B0008861552080052349486001200860832019
:1004C0001C49087345200870012008710320087337
:1004D0000220FFF737FF2820FFF734FF0120FFF746
:1004E00031FF0620FFF72EFF0C20FFF72BFF002225
:1004F000009201925A2214A11548002300F004F939
:100500000022009201925A2212A11548002300F005
:10051000FBF80022009201925A2212A113480023F4
:1005200000F0F2F800F0E4FCC046FEE7008002E0D4
:10053000DC05000000C000E0010F2001004003E0E6
:10054000C0FF000000C002E075617274300000005E
:10055000BF02000074656D7065726174757265002C
:10056000930300006D657373616765004B040000C1
:1005700010B5002406E014216143F94A881801F0FF
:1005800001F8641C042CF6D3F548503000F0FAFF53
:10059000F348643000F0F6FFF148783000F0F2FFE5
:1005A000EF488C3000F0EEFFED48A03000F0EAFF9D
:1005B000EB485030EB4908601430091D086010BC4E
:1005C00008BC184710B5040001F08DF8E5482C3838
:1005D0000068401CE3492C390860E34800680028A3
:1005E00008D1E14804600800006801280FD1FFF736
:1005F000BFFF0CE0DB4820380068002807D1DA484C
:100600000068C06AE16A884201D8D7480460D548CA
:1006100010380068401CD349103908601439E06A6A
:100620000968884203D9CF492439E06A0860142256
:10063000E16A5143CA4A8818211D00F0B3FF01F056
:100640005DF8C84820380068002807D0C648006810
:10065000C06AE16A884201D201F0FCFA10BC08BC11
:100660001847FFB581B00C0015000A9E0C98006B6E
:10067000691E8900401800900098C008C0000090D2
:10068000002708E0E15D0C983430C155E05D00289A
:1006900000D102E07F1C082FF4D3C04600210C9843
:1006A0003430C171042E00D303260C98C6620C9816
:1006B000C66300200C9908640C98001D00F06FFFC1
:1006C0000C98183000F06BFF0C9800610420801B20
:1006D0000C9988610C98406200200C9948640021B4
:1006E0000C9840300172049A684603C800F094FFE9
:1006F0000C9908600B98002802D00BA803C8016071
:1007000005B0F0BC08BC1847FFB587B00400150061
:100710001E00A80001F03FF80700002F0DD04C206C
:1007200001F039F806900698002802D00698076371
:1007300005E0380001F088F801E0002006900698F6
:10074000002812D000220699119801AB07C3109A15
:10075000330000922A0020000899FFF782FF0698D4
:10076000FFF730FF0120059002E00020C043059014
:1007700005980BB0F0BC08BC18477A4909680968AD
:10078000002901D1012100E00021002905D000212C
:10079000C943744A0C3A116007E072490968C96894
:1007A000C868704A0C3A41681160704710B504007F
:1007B000206B01F049F8200001F046F810BC08BC9D
:1007C000184770B5050000F08EFF002D02D1664875
:1007D000006800E028000400201D00F009FFA06A66
:1007E000002803D02000183000F002FF5D481038C8
:1007F0000068401C5B49103908605B48006884420F
:100800000CD1211D56488C3000F0CCFE55483038B4
:100810000068401C5349303908600BE051482C38BF
:100820000068401E4F492C3908602000FFF7BEFFCA
:10083000FFF7A3FF00F062FF4A4820380068002855
:1008400005D049480068844201D101F003FA70BC28
:1008500008BC1847F8B5002000904248001F006807
:1008600000286BD13F4828380068461C3D4828388E
:100870000660002E0FD128300768001D0068394936
:100880000860081D076018380068401C14390860AB
:10089000FFF773FFC04633480C380068864241D3E7
:1008A000C046304800680068002801D1012000E0FF
:1008B0000020002805D00020C0432A490C390860D8
:1008C0002FE028480068C068C4686568AE4203D25B
:1008D00024480C38056024E0201D00F089FEA06A41
:1008E000002803D02000183000F082FE1D49243972
:1008F000E06A0968884203D91A492439E06A086025
:100900001422E16A5143164A8818211D00F04AFE5C
:100910001549E06A0968C96A8842C2D3012000907B
:10092000BFE7C04610480068C06A142148430C491C
:100930000858012801D90120009006E009481C3818
:100940000068401C07491C390860064818380068D0
:10095000002801D0012000900098F8BC08BC18477E
:1009600058000040340000400000004070B50024F2
:10097000002500F0B8FEFD480068401EFB490860F5
:1009800008000068002856D10800283800680028B0
:1009900051D026E0F648C068C4682000183000F046
:1009A00027FE201D00F024FEF0492039E06A096886
:1009B000884203D9ED492039E06A08601422E16ACF
:1009C0005143EB4A783A8818211D00F0EBFDE949C4
:1009D000E06A0968C96A884203D30120E3491439EF
:1009E0000860E3480068002801D1012000E00020F1
:1009F0000028CFD0002C01D0FFF7BFFEDB4818380D
:100A00000668002E0FD0C046FFF724FF002803D051
:100A10000120D64914390860761E002EF4D100203A
:100A2000D24918390860D14814380068002802D02B
:100A3000012501F00FF900F061FE280070BC08BC30
:100A40001847F8B504000D00C84824380768C9489D
:100A50000068001D00F0CCFD601C09D1002D07D0FE
:100A6000C4480168091DC248283000F09BFD1EE003
:100A70003E19C04800684660BE4208D2BD480168C1
:100A8000091DBA480830006800F098FD0FE0B94829
:100A90000168091DB548001D006800F08FFDB348CE
:100AA00008380068864202D2B04808380660F8BCB0
:100AB00008BC1847AD480068401CAC490860704746
:100AC000FEB504000D0000200190FFF7F3FFA748DA
:100AD00024380068009020684619206800998842F0
:100AE00008D92068B0420DD9009886420AD9012061
:100AF000019007E02068B04202D80098864201D9F0
:100B00000120019026600198002804D00099701AF5
:100B10000021FFF796FFFFF729FF0700002F01D103
:100B200001F098F8FEBC08BC184770B50400002519
:100B3000002C08D0FFF7BEFF00212000FFF781FF47
:100B4000FFF714FF0500002D01D101F083F870BC00
:100B500008BC184770B5040000F0C5FD002C02D198
:100B60008448006800E020000500EE6A00F0C6FD41
:100B7000300070BC08BC184710B4010000230029E5
:100B800002D17C4C246800E00C002200D06A10BC2A
:100B90007047FEB504000D0000200090042D00D326
:100BA000032500F0A0FD002C02D17248006800E08F
:100BB00020000600F76BAF424CD0BD420BD96D4808
:100BC000006886420DD06B480068C06AA84208D809
:100BD0000120009005E067480068864201D10120AD
:100BE0000090F06A0190F16AF06B884200D1F562E2
:100BF000F563B069C00FC00702D10420401BB0618B
:100C00007169142201985043594A783A80188142F8
:100C100001D1012000E00020002815D0301D00F097
:100C2000E7FC52492039F06A0968884203D94F49E4
:100C30002039F06A08601422F16A51434C4A783A2C
:100C40008818311D00F0AEFC0098002801D001F09A
:100C500001F8C04600F052FDFEBC08BC18474348EE
:100C60000068002804D001204049143908602BE0B6
:100C700000203E49143908600C39086800E0401E25
:100C8000142141433A4A783A5158002901D10121AF
:100C900000E000210029F2D114224243344B783B7A
:100CA000D1184A6852684A600A0008324B68934279
:100CB00002D14A6852684A604A68D2682D4B1A606D
:100CC0002A4920390860C046704770B5050000F019
:100CD0000AFD002D02D12748006800E0280004002A
:100CE000201D00F085FCA06A002803D020001830E9
:100CF00000F07EFC211D1E48283000F053FC00F05F
:100D0000FDFC1A481C380068002805D000F0EBFCF8
:100D1000FFF733FD00F0F2FC16480068844215D15D
:100D200012481C380068002802D000F093FF0DE044
:100D30000F48283000680D4928390968884203D1D6
:100D400000200C49086001E0FFF789FF70BC08BC77
:100D5000184710B4010000200A001100044C283488
:100D60005369A34208D1012307E00000300000408E
:100D7000D0000040000000400023002B11D0F94CAF
:100D8000936AA34201D1012300E00023002B08D184
:100D9000936A002B01D1012300E00023002B00D037
:100DA000012010BC704770B505002C00002C28D025
:100DB000ED480068844224D000F095FC2000FFF745
:100DC000C8FF00281BD0201D00F012FCE749E06A94
:100DD0000968884202D9E549E06A08601422E16A9C
:100DE0005143E04A783A8818211D00F0DBFBDE49C8
:100DF000E06A0968C96A884201D300F02BFF00F05D
:100E00007DFC70BC08BC1847F8B50400002526001E
:100E100000273000FFF79DFF002825D0D348203061
:100E2000006800281BD1D049F06A0968C96A884265
:100E300000D30125301D00F0DBFBCC49F06A0968C6
:100E4000884202D9C949F06A08601422F16A514304
:100E5000C44A783A8818311D00F0A4FB04E0310040
:100E60001831C04800F09EFB2800F8BC08BC1847A9
:100E700070B529E0FFF71EFEBA481430006800285C
:100E800001D1012000E000200500FFF76FFD002DDB
:100E90001AD100F028FCB3481430C068C468201D83
:100EA00000F0A6FBB14808380068401EAF49083979
:100EB0000860081F0068401E091F086000F01EFC43
:100EC0002000FFF773FCC046A8480C3800680028D3
:100ED000D0D170BC08BC184710B5C046FFF7C8FF9A
:100EE000A048783800680128F8D900F0B3FEF5E78B
:100EF0001CB59E4A1C320021684606C05A229CA19D
:100F00009D480023FFF700FC0400012C0DD100F0E8
:100F1000A5FEA01E9549183108600120143908600B
:100F200000200839086000F0D4FB1CBC08BC18473E
:100F300010B500F093FE00208C49091D086000F0F8
:100F4000D1FB10BC08BC184710B500F0CCFB87489B
:100F5000001F046800F0D2FB200010BC08BC18473A
:100F60000021824A121F10687047804808380068C4
:100F700070470200002A02D17B48006800E01000A0
:100F8000010008003430704770B504000D00764849
:100F900001681831200000F011FB01212800FFF743
:100FA00050FD70BC08BC184770B504000D00160059
:100FB0000120C00728436C49096888616A480168B4
:100FC0001831200000F0EEFA01213000FFF739FD62
:100FD00070BC08BC184770B50400E068C5682800FC
:100FE000183000F005FB614820300068002814D15B
:100FF000281D00F0FDFA5D49E86A0968884202D9B7
:101000005A49E86A08601422E96A5143554A783A15
:101010008818291D00F0C6FA04E02900183151484B
:1010200000F0C0FA5049E86A0968C96A884205D9DF
:10103000012601204D490C31086000E000263000F7
:1010400070BC08BC1847F8B504000D000120C007AB
:1010500028432060E668200000F0CAFA301D00F046
:10106000C7FA4249F06A0968884202D93F49F06AE2
:1010700008601422F16A51433A4A783A8818311DBF
:1010800000F090FA3849F06A0968C96A884205D9BF
:101090000127012035490C31086000E000273800A5
:1010A000F8BC08BC184731491031096801602F4964
:1010B000091F09684160704770B504000D0000F019
:1010C00012FB2A48001F02682868401C01D1002634
:1010D0001AE02649103120680968884204D0606807
:1010E000904201D801260FE06068101A29688842F2
:1010F00009D228686168511A401A28602000FFF759
:10110000D2FF002600E0012600F0F8FA300070BCA3
:1011100008BC1847012015490C3108607047124976
:101120000868704770B505002C002C0045D00E49AA
:10113000E06A0968C96A88423FD2A069C00FC00747
:1011400005D109480068C06A0421081AA061142268
:10115000E06A5043034A783A8018616981420DD1B0
:1011600001200CE0D00000400000004010000040D2
:1011700049444C4500000000D90E00000020002822
:1011800017D0201D00F034FAFB480068C06AE06206
:10119000FA49E06A0968884202D9F849E06A0860B9
:1011A0001422E16A5143F64A8818211D00F0FAF929
:1011B00003E0F1480068C06AE06270BC08BC1847F0
:1011C00070B5040025000026002C23D0286C401E9A
:1011D0002864E96BE86A88421CD0286C002819D181
:1011E000281D00F005FAE86BE8620421E86A081A95
:1011F000A861E249E86A0968884202D9DF49E86AD9
:1012000008601422E96A5143DD4A8818291D00F05C
:10121000C9F90126300070BC08BC1847D6490968D6
:101220008869D5490968C96A0422511AD24A1268E4
:1012300091617047D0480068002806D0CE490968FF
:1012400008004030096C491C0160CB4800687047B9
:1012500070B504000E0000F046FAC7480068406C04
:1012600000280BD10121C448006840300172002ED3
:1012700004D03000FFF7E5FB00F0ECFC00F03EFA94
:1012800000F031FABC480068456C002D0AD0002CF3
:1012900004D00020B8490968486403E0681EB649D4
:1012A000096848640021B44800684030017200F0C9
:1012B00025FA280070BC08BC1847FFB581B00400AF
:1012C0000D00160000F00FFAAB4800684030007ABD
:1012D000022813D0A849096808004430496CA1438A
:1012E00001600121A4480068403001720498002880
:1012F00004D00498FFF7A5FB00F0ACFC00F0FEF969
:1013000000F0F1F9002E03D09B480068406C30607B
:10131000994800684030007A012801D1002707E091
:101320009549096808004430496CA94301600127C8
:101330000021914800684030017200F0DFF9380068
:1013400005B0F0BC08BC1847FFB583B004000D0021
:101350001E0001200290270000F0C5F9002E01D0E8
:10136000786C30604820C05D019002214820C15552
:10137000059B00F089FC051604080C0E1700786C1C
:10138000284378640EE0786C401C78640AE07D6441
:1013900008E00198022801D07D6401E0002002905D
:1013A00000E0C046C046019801281AD1381D00F05F
:1013B0001FF97249F86A0968884202D96F49F86AC8
:1013C00008601422F96A51436D4A8818391D00F0EB
:1013D000E9F86949F86A0968C96A884201D900F0E0
:1013E00039FC00F08BF9029807B0F0BC08BC184734
:1013F000FFB583B004000D001E00012001902700FE
:1014000000200090002E01D0786C30604820C05D34
:10141000029002214820C155059B00F035FC0516BD
:1014200004080C0E1700786C284378640EE0786C82
:10143000401C78640AE07D6408E00298022801D02C
:101440007D6401E00020019000E0C046C0460298A3
:1014500001282FD1494820300068002813D1381DB9
:1014600000F0C6F84549F86A0968884202D943493C
:10147000F86A08601422F96A5143414A8818391DF4
:1014800000F090F805E0390018313D48783000F060
:1014900089F83949F86A0968C96A88420AD90C98F2
:1014A000002803D001210C98016003E0012033499A
:1014B0000C310860019807B0F0BC08BC1847F8B5BB
:1014C00004000D0026000020009034004820875DB5
:1014D00002218155706C401C7064012F2DD127486A
:1014E00020300068002813D1301D00F081F8234916
:1014F000F06A0968884202D92049F06A086014221B
:10150000F16A51431E4A8818311D00F04BF805E07E
:10151000310018311A48783000F044F81649F06A62
:101520000968C96A884208D9002D02D001202860C4
:1015300003E0012011490C310860F8BC08BC1847D1
:1015400070B50400002C02D10B48006800E02000B8
:10155000050000F0C8F84820405D022804D10021B1
:1015600048204155012600E0002600F0C7F8300071
:1015700070BC08BC1847000000000040100000408C
:10158000580000400100083141600021C9438160DA
:1015900001000831C1600161002101607047002134
:1015A0000161704742684A6093688B609368596034
:1015B0009160086103685B1C0360704710B40B689E
:1015C0005C1C01D1026907E00200083200E05268A9
:1015D000546824689C42FAD954684C604C68A160F5
:1015E0008A60516008610468641C046010BC704724
:1015F00001000A694B6888689860081D09C858602E
:101600005068884201D188685060002008611068E5
:10161000401E10601068704730B40300001F0C1D9E
:101620000460001F3F4C0460001F0360001F3E4C1D
:101630000460001F3D4C0460001F3D4C0460001F0F
:101640003C4C0460001F3C4C0460001F3B4C046099
:10165000001F3B4C0460001F3A4C0460001F3A4CD2
:101660000460001F394C0460001F394C0460001FE7
:1016700064100460001F0260001F1F240460CC0778
:10168000E40F03D0202504682C430460001F0024CD
:10169000046030BC704700212E4AD1602E481100F2
:1016A0008861032151615114C968102291432B4A6A
:1016B000D1601100096910221143284A116128499B
:1016C000284A11602421284A11600121214A5160D1
:1016D000704710B5FFF7DFFF00F0F4F9002010BCF1
:1016E00008BC1847704710B500F0B8FA1F480068EA
:1016F000401C1E49086010BC08BC184710B51B48A8
:10170000006800280AD019480068401E1749086080
:1017100008000068002801D100F0ACFA10BC08BC39
:1017200018470000AAAAAAAA121212121111111126
:101730001010101009090909080808080707070709
:101740000606060605050505040404040303030351
:1017500002020202004000E060EA000000F0FFFF29
:101760008C1B000000F1FFFF00F2FFFF3C00004077
:10177000494AD108C900494A11600022474B5A60C2
:10178000474A08335A6000221A600800444A4260FF
:101790001A0002607047F8B5040000200090FFF7BF
:1017A00089F93E48001F0068002805D1FFF7E0FFD7
:1017B00001203A49091F0860002C08D0083460074E
:1017C000400F04D06007400F0821081A0419002CAC
:1017D00034D03348844231D2304E3000056801E0C5
:1017E0002E002D686868A04202D228680028F7D130
:1017F0002A480830854221D0306808300090286897
:1018000030606868001B102810D92F196868001B09
:1018100078606C607968214800E00068026852686E
:101820008A42FAD302683A600760C0461B49083909
:1018300068680968081A194908390860FFF796F8B6
:101840000098F8BC08BC184770B504002500002CAF
:1018500019D0083D2E00FFF72DF9350071680F48AB
:1018600000E00068026852688A42FAD30268326077
:1018700006600A490839706809684018074908393C
:101880000860FFF773F870BC08BC184703480838B5
:101890000068704770470000140100404800004095
:1018A000F83300007847C046013090E12100004A3B
:1018B0000020B0E3A03071E01A00003A203271E05D
:1018C0000F00003A203471E00100003A00C0A0E3AC
:1018D000200000EAA03371E0810340200220B2E042
:1018E000203371E0010340200220B2E0A03271E019
:1018F000810240200220B2E0203271E0010240204B
:101900000220B2E0A03171E0810140200220B2E06B
:10191000203171E0010140200220B2E0A03071E0EE
:10192000810040200220B2E0011050E00010A03100
:101930000200A2E01EFF2FE1022111E2001061422D
:1019400040C032E000006022203271E01D00003A09
:10195000203471E00F00003A0113A0E1203471E05F
:101960003F2382E30B00003A0113A0E1203471E031
:101970003F2682E30700003A0113A0E1203471E022
:101980003F2982E30113A0213F2C8223003071E222
:101990001D00002A2113A021A03371E08103402003
:1019A0000220B2E0203371E0010340200220B2E0C7
:1019B000A03271E0810240200220B2E0203271E0CA
:1019C000010240200220B2E0A03171E081014020FC
:1019D0000220B2E0203171E0010140200220B2E09B
:1019E000EBFFFF2AA03071E0810040200220B2E02E
:1019F000011050E00010A0310200A2E0CCCFB0E115
:101A000000006042001061221EFF2FE1CCCFB0E148
:101A10000000604201402DE90000B0E30000A0E1B9
:101A20000240BDE81EFF2FE170477047704700007D
:101A30000E50A0E1180000EB05E0A0E10050B0E17D
:101A40000D10A0E10A30A0E10700C0E300D0A0E142
:101A500060D08DE220402DE9EFF9FFEB2040BDE89A
:101A60000060A0E30070A0E30080A0E300B0A0E36A
:101A70000710C1E305C0A0E1C009ACE8C009ACE8AB
:101A8000C009ACE8C009ACE801D0A0E11EFF2FE11D
:101A90000400C046C0462000FEF7BAFB00009FE5E8
:101AA0001EFF2FE10C3500400C109FE51800A0E34D
:101AB000563412EF1EFF2FE108000000260002003E
:101AC0001EFF2FE17847C0466C019FE5000090E5BE
:101AD00000E090E564019FE50200BEE8001080E5AB
:101AE0000100BEE800F06FE1FF7FDEE80000A0E14A
:101AF0003CE09EE504F05EE2000000EF1EFF2FE1F7
:101B000004E08EE201002DE900204DE90000A0E193
:101B100004D04DE20100BDE8004020E900E0A0E172
:101B20000100BDE8FF7F4EE90000A0E13CE04EE28D
:101B300000004FE101002EE900019FE5000090E563
:101B400001002EE9F0009FE5001090E500E081E53E
:101B5000EC009FE50FE0A0E110FF2FE1D8009FE52A
:101B6000000090E500E090E5D0009FE50200BEE8AF
:101B7000001080E50100BEE800F06FE1FF7FDEE8C5
:101B80000000A0E13CE09EE504F05EE201002DE9EA
:101B900000204DE90000A0E104D04DE20100BDE8C5
:101BA000004020E900E0A0E10100BDE8FF7F4EE930
:101BB0000000A0E13CE04EE200004FE101002EE910
:101BC00078009FE5000090E501002EE968009FE5A0
:101BD000001090E500E081E568009FE50FE0A0E1DE
:101BE00010FF2FE1000050E30200000A50009FE5C3
:101BF0000FE0A0E110FF2FE10100A0E348109FE5F6
:101C0000000081E544009FE5000080E528009FE595
:101C1000000090E500E090E520009FE50200BEE8AE
:101C2000001080E50100BEE800F06FE1FF7FDEE814
:101C30000000A0E13CE09EE504F05EE20000004010
:101C40003C0000405F0C000055080000004000E030
:101C500030F0FFFF7847C046A6FFFFEA7847C0464E
:101C600000000FE1801080E301F021E1800000E23C
:101C70001EFF2FE17847C04600000FE18000C0E35F
:101C800000F021E11EFF2FE17847C04601C05EE56C
:101C90000C0053E10100002A0330DEE7000000EAF7
:101CA0000C30DEE783C08EE01CFF2FE17847C04692
:101CB0001EFF2FE1D41C000000000040580000006F
:101CC000580100002C1D000058000040383B000067
:101CD0008001000000000000000000000000000083
:101CE00000000000000000000000000000000000F4
:101CF00000000000000000000000000000000000E4
:101D000000000000000000000000000000000000D3
:101D10000F270000F8330000000000000000000062
:0C1D2000000000000000000000000000B7
:0400000500000114E2
:00000001FF
